{
  "_format": "hh-sol-artifact-1",
  "contractName": "TokenVault",
  "sourceName": "contracts/TokenVault.sol",
  "abi": [
    {
      "inputs": [
        {
          "internalType": "address",
          "name": "_tokenAddress",
          "type": "address"
        }
      ],
      "stateMutability": "nonpayable",
      "type": "constructor"
    },
    {
      "inputs": [
        {
          "internalType": "address",
          "name": "owner",
          "type": "address"
        }
      ],
      "name": "OwnableInvalidOwner",
      "type": "error"
    },
    {
      "inputs": [
        {
          "internalType": "address",
          "name": "account",
          "type": "address"
        }
      ],
      "name": "OwnableUnauthorizedAccount",
      "type": "error"
    },
    {
      "anonymous": false,
      "inputs": [
        {
          "indexed": true,
          "internalType": "address",
          "name": "previousOwner",
          "type": "address"
        },
        {
          "indexed": true,
          "internalType": "address",
          "name": "newOwner",
          "type": "address"
        }
      ],
      "name": "OwnershipTransferred",
      "type": "event"
    },
    {
      "anonymous": false,
      "inputs": [
        {
          "indexed": true,
          "internalType": "address",
          "name": "depositor",
          "type": "address"
        },
        {
          "indexed": false,
          "internalType": "uint256",
          "name": "amount",
          "type": "uint256"
        }
      ],
      "name": "TokenDeposited",
      "type": "event"
    },
    {
      "anonymous": false,
      "inputs": [
        {
          "indexed": true,
          "internalType": "address",
          "name": "account",
          "type": "address"
        },
        {
          "indexed": false,
          "internalType": "uint256",
          "name": "amount",
          "type": "uint256"
        }
      ],
      "name": "TokensClaimed",
      "type": "event"
    },
    {
      "anonymous": false,
      "inputs": [
        {
          "indexed": true,
          "internalType": "address",
          "name": "account",
          "type": "address"
        },
        {
          "indexed": false,
          "internalType": "uint256",
          "name": "amount",
          "type": "uint256"
        }
      ],
      "name": "Whitelisted",
      "type": "event"
    },
    {
      "inputs": [
        {
          "internalType": "address[]",
          "name": "accounts",
          "type": "address[]"
        },
        {
          "internalType": "uint256[]",
          "name": "amounts",
          "type": "uint256[]"
        }
      ],
      "name": "addToWhitelist",
      "outputs": [],
      "stateMutability": "nonpayable",
      "type": "function"
    },
    {
      "inputs": [],
      "name": "claimTokens",
      "outputs": [],
      "stateMutability": "nonpayable",
      "type": "function"
    },
    {
      "inputs": [
        {
          "internalType": "uint256",
          "name": "amount",
          "type": "uint256"
        }
      ],
      "name": "depositTokens",
      "outputs": [],
      "stateMutability": "nonpayable",
      "type": "function"
    },
    {
      "inputs": [
        {
          "internalType": "address",
          "name": "account",
          "type": "address"
        }
      ],
      "name": "getApprovedClaimableAmount",
      "outputs": [
        {
          "internalType": "uint256",
          "name": "",
          "type": "uint256"
        }
      ],
      "stateMutability": "view",
      "type": "function"
    },
    {
      "inputs": [],
      "name": "owner",
      "outputs": [
        {
          "internalType": "address",
          "name": "",
          "type": "address"
        }
      ],
      "stateMutability": "view",
      "type": "function"
    },
    {
      "inputs": [
        {
          "internalType": "address[]",
          "name": "accounts",
          "type": "address[]"
        }
      ],
      "name": "removeFromWhitelist",
      "outputs": [],
      "stateMutability": "nonpayable",
      "type": "function"
    },
    {
      "inputs": [],
      "name": "renounceOwnership",
      "outputs": [],
      "stateMutability": "nonpayable",
      "type": "function"
    },
    {
      "inputs": [],
      "name": "token",
      "outputs": [
        {
          "internalType": "contract IERC20",
          "name": "",
          "type": "address"
        }
      ],
      "stateMutability": "view",
      "type": "function"
    },
    {
      "inputs": [
        {
          "internalType": "address",
          "name": "_token",
          "type": "address"
        },
        {
          "internalType": "address",
          "name": "_to",
          "type": "address"
        }
      ],
      "name": "transferForeignToken",
      "outputs": [
        {
          "internalType": "bool",
          "name": "_sent",
          "type": "bool"
        }
      ],
      "stateMutability": "nonpayable",
      "type": "function"
    },
    {
      "inputs": [
        {
          "internalType": "address",
          "name": "newOwner",
          "type": "address"
        }
      ],
      "name": "transferOwnership",
      "outputs": [],
      "stateMutability": "nonpayable",
      "type": "function"
    },
    {
      "inputs": [
        {
          "internalType": "address",
          "name": "",
          "type": "address"
        }
      ],
      "name": "whitelist",
      "outputs": [
        {
          "internalType": "uint256",
          "name": "",
          "type": "uint256"
        }
      ],
      "stateMutability": "view",
      "type": "function"
    },
    {
      "inputs": [],
      "name": "withdrawStuckETH",
      "outputs": [],
      "stateMutability": "nonpayable",
      "type": "function"
    }
  ],
  "bytecode": "0x60806040523480156200001157600080fd5b5060405162001bab38038062001bab833981810160405281019062000037919062000235565b33600073ffffffffffffffffffffffffffffffffffffffff168173ffffffffffffffffffffffffffffffffffffffff1603620000ad5760006040517f1e4fbdf7000000000000000000000000000000000000000000000000000000008152600401620000a4919062000278565b60405180910390fd5b620000be816200010760201b60201c565b5080600160006101000a81548173ffffffffffffffffffffffffffffffffffffffff021916908373ffffffffffffffffffffffffffffffffffffffff1602179055505062000295565b60008060009054906101000a900473ffffffffffffffffffffffffffffffffffffffff169050816000806101000a81548173ffffffffffffffffffffffffffffffffffffffff021916908373ffffffffffffffffffffffffffffffffffffffff1602179055508173ffffffffffffffffffffffffffffffffffffffff168173ffffffffffffffffffffffffffffffffffffffff167f8be0079c531659141344cd1fd0a4f28419497f9722a3daafe3b4186f6b6457e060405160405180910390a35050565b600080fd5b600073ffffffffffffffffffffffffffffffffffffffff82169050919050565b6000620001fd82620001d0565b9050919050565b6200020f81620001f0565b81146200021b57600080fd5b50565b6000815190506200022f8162000204565b92915050565b6000602082840312156200024e576200024d620001cb565b5b60006200025e848285016200021e565b91505092915050565b6200027281620001f0565b82525050565b60006020820190506200028f600083018462000267565b92915050565b61190680620002a56000396000f3fe608060405234801561001057600080fd5b50600436106100b45760003560e01c8063d0f380b511610071578063d0f380b514610167578063dd49756e14610197578063f2fde38b146101b3578063f5648a4f146101cf578063f8d50542146101d9578063fc0c546a146101f5576100b4565b806348c54b9d146100b9578063548db174146100c3578063715018a6146100df5780638366e79a146100e95780638da5cb5b146101195780639b19251a14610137575b600080fd5b6100c1610213565b005b6100dd60048036038101906100d89190610f7a565b61044e565b005b6100e7610560565b005b61010360048036038101906100fe9190610fc3565b610574565b604051610110919061101e565b60405180910390f35b6101216106f2565b60405161012e9190611048565b60405180910390f35b610151600480360381019061014c9190611063565b61071b565b60405161015e91906110a9565b60405180910390f35b610181600480360381019061017c9190611063565b610733565b60405161018e91906110a9565b60405180910390f35b6101b160048036038101906101ac91906110f0565b61077c565b005b6101cd60048036038101906101c89190611063565b6108f9565b005b6101d761097f565b005b6101f360048036038101906101ee91906111e0565b6109f8565b005b6101fd610c36565b60405161020a91906112b7565b60405180910390f35b6000600260003373ffffffffffffffffffffffffffffffffffffffff1673ffffffffffffffffffffffffffffffffffffffff1681526020019081526020016000205411610295576040517f08c379a000000000000000000000000000000000000000000000000000000000815260040161028c90611355565b60405180910390fd5b6000600260003373ffffffffffffffffffffffffffffffffffffffff1673ffffffffffffffffffffffffffffffffffffffff1681526020019081526020016000205490506000600260003373ffffffffffffffffffffffffffffffffffffffff1673ffffffffffffffffffffffffffffffffffffffff16815260200190815260200160002081905550600160009054906101000a900473ffffffffffffffffffffffffffffffffffffffff1673ffffffffffffffffffffffffffffffffffffffff1663a9059cbb33836040518363ffffffff1660e01b815260040161037b929190611375565b6020604051808303816000875af115801561039a573d6000803e3d6000fd5b505050506040513d601f19601f820116820180604052508101906103be91906113ca565b6103fd576040517f08c379a00000000000000000000000000000000000000000000000000000000081526004016103f490611443565b60405180910390fd5b3373ffffffffffffffffffffffffffffffffffffffff167f896e034966eaaf1adc54acc0f257056febbd300c9e47182cf761982cf1f5e4308260405161044391906110a9565b60405180910390a250565b610456610c5c565b60005b815181101561055c57600082828151811061047757610476611463565b5b602002602001015190506000600260008373ffffffffffffffffffffffffffffffffffffffff1673ffffffffffffffffffffffffffffffffffffffff1681526020019081526020016000205411610503576040517f08c379a00000000000000000000000000000000000000000000000000000000081526004016104fa906114de565b60405180910390fd5b6000600260008373ffffffffffffffffffffffffffffffffffffffff1673ffffffffffffffffffffffffffffffffffffffff168152602001908152602001600020819055505080806105549061152d565b915050610459565b5050565b610568610c5c565b6105726000610ce3565b565b600061057e610c5c565b600073ffffffffffffffffffffffffffffffffffffffff168373ffffffffffffffffffffffffffffffffffffffff16036105ed576040517f08c379a00000000000000000000000000000000000000000000000000000000081526004016105e4906115c1565b60405180910390fd5b60008373ffffffffffffffffffffffffffffffffffffffff166370a08231306040518263ffffffff1660e01b81526004016106289190611048565b602060405180830381865afa158015610645573d6000803e3d6000fd5b505050506040513d601f19601f8201168201806040525081019061066991906115f6565b90508373ffffffffffffffffffffffffffffffffffffffff1663a9059cbb84836040518363ffffffff1660e01b81526004016106a6929190611375565b6020604051808303816000875af11580156106c5573d6000803e3d6000fd5b505050506040513d601f19601f820116820180604052508101906106e991906113ca565b91505092915050565b60008060009054906101000a900473ffffffffffffffffffffffffffffffffffffffff16905090565b60026020528060005260406000206000915090505481565b6000600260008373ffffffffffffffffffffffffffffffffffffffff1673ffffffffffffffffffffffffffffffffffffffff168152602001908152602001600020549050919050565b610784610c5c565b600081116107c7576040517f08c379a00000000000000000000000000000000000000000000000000000000081526004016107be9061166f565b60405180910390fd5b600160009054906101000a900473ffffffffffffffffffffffffffffffffffffffff1673ffffffffffffffffffffffffffffffffffffffff166323b872dd3330846040518463ffffffff1660e01b81526004016108269392919061168f565b6020604051808303816000875af1158015610845573d6000803e3d6000fd5b505050506040513d601f19601f8201168201806040525081019061086991906113ca565b6108a8576040517f08c379a000000000000000000000000000000000000000000000000000000000815260040161089f90611443565b60405180910390fd5b3373ffffffffffffffffffffffffffffffffffffffff167fbc7c8a4d8049a3f99a02f2a20640c206a2e4d3f2fa54fd20da9f01fda3620cda826040516108ee91906110a9565b60405180910390a250565b610901610c5c565b600073ffffffffffffffffffffffffffffffffffffffff168173ffffffffffffffffffffffffffffffffffffffff16036109735760006040517f1e4fbdf700000000000000000000000000000000000000000000000000000000815260040161096a9190611048565b60405180910390fd5b61097c81610ce3565b50565b610987610c5c565b60003373ffffffffffffffffffffffffffffffffffffffff16476040516109ad906116f7565b60006040518083038185875af1925050503d80600081146109ea576040519150601f19603f3d011682016040523d82523d6000602084013e6109ef565b606091505b50508091505050565b610a00610c5c565b8051825114610a44576040517f08c379a0000000000000000000000000000000000000000000000000000000008152600401610a3b9061177e565b60405180910390fd5b60005b8251811015610c31576000838281518110610a6557610a64611463565b5b602002602001015190506000838381518110610a8457610a83611463565b5b60200260200101519050600073ffffffffffffffffffffffffffffffffffffffff168273ffffffffffffffffffffffffffffffffffffffff1603610afd576040517f08c379a0000000000000000000000000000000000000000000000000000000008152600401610af4906117ea565b60405180910390fd5b60008111610b40576040517f08c379a0000000000000000000000000000000000000000000000000000000008152600401610b379061187c565b60405180910390fd5b80600260008473ffffffffffffffffffffffffffffffffffffffff1673ffffffffffffffffffffffffffffffffffffffff16815260200190815260200160002054610b8b919061189c565b600260008473ffffffffffffffffffffffffffffffffffffffff1673ffffffffffffffffffffffffffffffffffffffff168152602001908152602001600020819055508173ffffffffffffffffffffffffffffffffffffffff167f6ea640312e182de387819fbeb13be00db3171a445412852248559054871c419982604051610c1491906110a9565b60405180910390a250508080610c299061152d565b915050610a47565b505050565b600160009054906101000a900473ffffffffffffffffffffffffffffffffffffffff1681565b610c64610da7565b73ffffffffffffffffffffffffffffffffffffffff16610c826106f2565b73ffffffffffffffffffffffffffffffffffffffff1614610ce157610ca5610da7565b6040517f118cdaa7000000000000000000000000000000000000000000000000000000008152600401610cd89190611048565b60405180910390fd5b565b60008060009054906101000a900473ffffffffffffffffffffffffffffffffffffffff169050816000806101000a81548173ffffffffffffffffffffffffffffffffffffffff021916908373ffffffffffffffffffffffffffffffffffffffff1602179055508173ffffffffffffffffffffffffffffffffffffffff168173ffffffffffffffffffffffffffffffffffffffff167f8be0079c531659141344cd1fd0a4f28419497f9722a3daafe3b4186f6b6457e060405160405180910390a35050565b600033905090565b6000604051905090565b600080fd5b600080fd5b600080fd5b6000601f19601f8301169050919050565b7f4e487b7100000000000000000000000000000000000000000000000000000000600052604160045260246000fd5b610e1182610dc8565b810181811067ffffffffffffffff82111715610e3057610e2f610dd9565b5b80604052505050565b6000610e43610daf565b9050610e4f8282610e08565b919050565b600067ffffffffffffffff821115610e6f57610e6e610dd9565b5b602082029050602081019050919050565b600080fd5b600073ffffffffffffffffffffffffffffffffffffffff82169050919050565b6000610eb082610e85565b9050919050565b610ec081610ea5565b8114610ecb57600080fd5b50565b600081359050610edd81610eb7565b92915050565b6000610ef6610ef184610e54565b610e39565b90508083825260208201905060208402830185811115610f1957610f18610e80565b5b835b81811015610f425780610f2e8882610ece565b845260208401935050602081019050610f1b565b5050509392505050565b600082601f830112610f6157610f60610dc3565b5b8135610f71848260208601610ee3565b91505092915050565b600060208284031215610f9057610f8f610db9565b5b600082013567ffffffffffffffff811115610fae57610fad610dbe565b5b610fba84828501610f4c565b91505092915050565b60008060408385031215610fda57610fd9610db9565b5b6000610fe885828601610ece565b9250506020610ff985828601610ece565b9150509250929050565b60008115159050919050565b61101881611003565b82525050565b6000602082019050611033600083018461100f565b92915050565b61104281610ea5565b82525050565b600060208201905061105d6000830184611039565b92915050565b60006020828403121561107957611078610db9565b5b600061108784828501610ece565b91505092915050565b6000819050919050565b6110a381611090565b82525050565b60006020820190506110be600083018461109a565b92915050565b6110cd81611090565b81146110d857600080fd5b50565b6000813590506110ea816110c4565b92915050565b60006020828403121561110657611105610db9565b5b6000611114848285016110db565b91505092915050565b600067ffffffffffffffff82111561113857611137610dd9565b5b602082029050602081019050919050565b600061115c6111578461111d565b610e39565b9050808382526020820190506020840283018581111561117f5761117e610e80565b5b835b818110156111a8578061119488826110db565b845260208401935050602081019050611181565b5050509392505050565b600082601f8301126111c7576111c6610dc3565b5b81356111d7848260208601611149565b91505092915050565b600080604083850312156111f7576111f6610db9565b5b600083013567ffffffffffffffff81111561121557611214610dbe565b5b61122185828601610f4c565b925050602083013567ffffffffffffffff81111561124257611241610dbe565b5b61124e858286016111b2565b9150509250929050565b6000819050919050565b600061127d61127861127384610e85565b611258565b610e85565b9050919050565b600061128f82611262565b9050919050565b60006112a182611284565b9050919050565b6112b181611296565b82525050565b60006020820190506112cc60008301846112a8565b92915050565b600082825260208201905092915050565b7f41646472657373206973206e6f742077686974656c6973746564206f7220686160008201527f7320616c726561647920636c61696d6564000000000000000000000000000000602082015250565b600061133f6031836112d2565b915061134a826112e3565b604082019050919050565b6000602082019050818103600083015261136e81611332565b9050919050565b600060408201905061138a6000830185611039565b611397602083018461109a565b9392505050565b6113a781611003565b81146113b257600080fd5b50565b6000815190506113c48161139e565b92915050565b6000602082840312156113e0576113df610db9565b5b60006113ee848285016113b5565b91505092915050565b7f546f6b656e207472616e73666572206661696c65640000000000000000000000600082015250565b600061142d6015836112d2565b9150611438826113f7565b602082019050919050565b6000602082019050818103600083015261145c81611420565b9050919050565b7f4e487b7100000000000000000000000000000000000000000000000000000000600052603260045260246000fd5b7f41646472657373206973206e6f742077686974656c6973746564000000000000600082015250565b60006114c8601a836112d2565b91506114d382611492565b602082019050919050565b600060208201905081810360008301526114f7816114bb565b9050919050565b7f4e487b7100000000000000000000000000000000000000000000000000000000600052601160045260246000fd5b600061153882611090565b91507fffffffffffffffffffffffffffffffffffffffffffffffffffffffffffffffff820361156a576115696114fe565b5b600182019050919050565b7f5f746f6b656e20616464726573732063616e6e6f742062652030000000000000600082015250565b60006115ab601a836112d2565b91506115b682611575565b602082019050919050565b600060208201905081810360008301526115da8161159e565b9050919050565b6000815190506115f0816110c4565b92915050565b60006020828403121561160c5761160b610db9565b5b600061161a848285016115e1565b91505092915050565b7f416d6f756e74206d7573742062652067726561746572207468616e2030000000600082015250565b6000611659601d836112d2565b915061166482611623565b602082019050919050565b600060208201905081810360008301526116888161164c565b9050919050565b60006060820190506116a46000830186611039565b6116b16020830185611039565b6116be604083018461109a565b949350505050565b600081905092915050565b50565b60006116e16000836116c6565b91506116ec826116d1565b600082019050919050565b6000611702826116d4565b9150819050919050565b7f496e70757420617272617973206d7573742068617665207468652073616d652060008201527f6c656e6774680000000000000000000000000000000000000000000000000000602082015250565b60006117686026836112d2565b91506117738261170c565b604082019050919050565b600060208201905081810360008301526117978161175b565b9050919050565b7f496e76616c696420616464726573730000000000000000000000000000000000600082015250565b60006117d4600f836112d2565b91506117df8261179e565b602082019050919050565b60006020820190508181036000830152611803816117c7565b9050919050565b7f436c61696d61626c6520616d6f756e74206d757374206265206772656174657260008201527f207468616e203000000000000000000000000000000000000000000000000000602082015250565b60006118666027836112d2565b91506118718261180a565b604082019050919050565b6000602082019050818103600083015261189581611859565b9050919050565b60006118a782611090565b91506118b283611090565b92508282019050808211156118ca576118c96114fe565b5b9291505056fea2646970667358221220e85d4c460e7877c044939cca25c672aa70367b77ca51174bcd53a462966a215e64736f6c63430008130033",
  "linkReferences": {},
  "deployedLinkReferences": {}
}